{
  "contractName": "CUGAFarm",
  "abi": [
    {
      "inputs": [
        {
          "internalType": "contract CUGAToken",
          "name": "_cugaToken",
          "type": "address"
        }
      ],
      "stateMutability": "nonpayable",
      "type": "constructor"
    },
    {
      "inputs": [],
      "name": "cugaToken",
      "outputs": [
        {
          "internalType": "contract CUGAToken",
          "name": "",
          "type": "address"
        }
      ],
      "stateMutability": "view",
      "type": "function"
    },
    {
      "inputs": [
        {
          "internalType": "address",
          "name": "",
          "type": "address"
        }
      ],
      "name": "hasStaked",
      "outputs": [
        {
          "internalType": "bool",
          "name": "",
          "type": "bool"
        }
      ],
      "stateMutability": "view",
      "type": "function"
    },
    {
      "inputs": [],
      "name": "issueTokens",
      "outputs": [],
      "stateMutability": "nonpayable",
      "type": "function"
    },
    {
      "inputs": [],
      "name": "name",
      "outputs": [
        {
          "internalType": "string",
          "name": "",
          "type": "string"
        }
      ],
      "stateMutability": "view",
      "type": "function"
    },
    {
      "inputs": [],
      "name": "owner",
      "outputs": [
        {
          "internalType": "address",
          "name": "",
          "type": "address"
        }
      ],
      "stateMutability": "view",
      "type": "function"
    },
    {
      "inputs": [
        {
          "internalType": "string",
          "name": "_key",
          "type": "string"
        }
      ],
      "name": "setPassword",
      "outputs": [],
      "stateMutability": "nonpayable",
      "type": "function"
    },
    {
      "inputs": [
        {
          "internalType": "string",
          "name": "_key",
          "type": "string"
        },
        {
          "internalType": "address",
          "name": "_withdrawer",
          "type": "address"
        },
        {
          "internalType": "uint256",
          "name": "_amount",
          "type": "uint256"
        }
      ],
      "name": "setWithdrawAllowance",
      "outputs": [],
      "stateMutability": "nonpayable",
      "type": "function"
    },
    {
      "inputs": [],
      "name": "stakeTokens",
      "outputs": [],
      "stateMutability": "payable",
      "type": "function"
    },
    {
      "inputs": [
        {
          "internalType": "uint256",
          "name": "",
          "type": "uint256"
        }
      ],
      "name": "stakers",
      "outputs": [
        {
          "internalType": "address",
          "name": "",
          "type": "address"
        }
      ],
      "stateMutability": "view",
      "type": "function"
    },
    {
      "inputs": [],
      "name": "totalStake",
      "outputs": [
        {
          "internalType": "uint256",
          "name": "",
          "type": "uint256"
        }
      ],
      "stateMutability": "view",
      "type": "function"
    },
    {
      "inputs": [
        {
          "internalType": "address",
          "name": "",
          "type": "address"
        }
      ],
      "name": "waitingReward",
      "outputs": [
        {
          "internalType": "uint256",
          "name": "",
          "type": "uint256"
        }
      ],
      "stateMutability": "view",
      "type": "function"
    },
    {
      "inputs": [
        {
          "internalType": "address",
          "name": "",
          "type": "address"
        }
      ],
      "name": "withdrawAllowance",
      "outputs": [
        {
          "internalType": "uint256",
          "name": "",
          "type": "uint256"
        }
      ],
      "stateMutability": "view",
      "type": "function"
    },
    {
      "inputs": [],
      "name": "withdrawTokens",
      "outputs": [],
      "stateMutability": "payable",
      "type": "function"
    }
  ],
  "bytecode": "0x60806040526040518060400160405280600f81526020017f4355474120546f6b656e204661726d0000000000000000000000000000000000815250600090805190602001906200005192919062000172565b506040518060400160405280601081526020017f69616d6e6f74676f6e6e6174656c6c7500000000000000000000000000000000815250600290805190602001906200009f92919062000172565b506000600555348015620000b257600080fd5b50604051620015243803806200152483398181016040526020811015620000d857600080fd5b810190808051906020019092919050505080600360006101000a81548173ffffffffffffffffffffffffffffffffffffffff021916908373ffffffffffffffffffffffffffffffffffffffff16021790555033600160006101000a81548173ffffffffffffffffffffffffffffffffffffffff021916908373ffffffffffffffffffffffffffffffffffffffff1602179055505062000221565b828054600181600116156101000203166002900490600052602060002090601f016020900481019282601f10620001b557805160ff1916838001178555620001e6565b82800160010185558215620001e6579182015b82811115620001e5578251825591602001919060010190620001c8565b5b509050620001f59190620001f9565b5090565b6200021e91905b808211156200021a57600081600090555060010162000200565b5090565b90565b6112f380620002316000396000f3fe6080604052600436106100c25760003560e01c80638da5cb5b1161007f578063fb8e73f411610059578063fb8e73f414610434578063fd5e6dd114610499578063fe7441e714610514578063ffddbfd114610579576100c2565b80638da5cb5b1461036a578063c93c8f34146103c1578063ce46643b1461042a576100c2565b806306fdde03146100c757806325abc40514610157578063290bb4531461024957806360ab5852146103115780638b0e9f3f146103285780638d8f2adb14610353575b600080fd5b3480156100d357600080fd5b506100dc6105d0565b6040518080602001828103825283818151815260200191508051906020019080838360005b8381101561011c578082015181840152602081019050610101565b50505050905090810190601f1680156101495780820380516001836020036101000a031916815260200191505b509250505060405180910390f35b34801561016357600080fd5b506102476004803603606081101561017a57600080fd5b810190808035906020019064010000000081111561019757600080fd5b8201836020820111156101a957600080fd5b803590602001918460018302840111640100000000831117156101cb57600080fd5b91908080601f016020809104026020016040519081016040528093929190818152602001838380828437600081840152601f19601f820116905080830192505050505050509192919290803573ffffffffffffffffffffffffffffffffffffffff1690602001909291908035906020019092919050505061066e565b005b34801561025557600080fd5b5061030f6004803603602081101561026c57600080fd5b810190808035906020019064010000000081111561028957600080fd5b82018360208201111561029b57600080fd5b803590602001918460018302840111640100000000831117156102bd57600080fd5b91908080601f016020809104026020016040519081016040528093929190818152602001838380828437600081840152601f19601f8201169050808301925050505050505091929192905050506109c6565b005b34801561031d57600080fd5b50610326610aa3565b005b34801561033457600080fd5b5061033d610d3f565b6040518082815260200191505060405180910390f35b34801561035f57600080fd5b50610368610d45565b005b34801561037657600080fd5b5061037f610ef9565b604051808273ffffffffffffffffffffffffffffffffffffffff1673ffffffffffffffffffffffffffffffffffffffff16815260200191505060405180910390f35b3480156103cd57600080fd5b50610410600480360360208110156103e457600080fd5b81019080803573ffffffffffffffffffffffffffffffffffffffff169060200190929190505050610f1f565b604051808215151515815260200191505060405180910390f35b610432610f3f565b005b34801561044057600080fd5b506104836004803603602081101561045757600080fd5b81019080803573ffffffffffffffffffffffffffffffffffffffff16906020019092919050505061115a565b6040518082815260200191505060405180910390f35b3480156104a557600080fd5b506104d2600480360360208110156104bc57600080fd5b8101908080359060200190929190505050611172565b604051808273ffffffffffffffffffffffffffffffffffffffff1673ffffffffffffffffffffffffffffffffffffffff16815260200191505060405180910390f35b34801561052057600080fd5b506105636004803603602081101561053757600080fd5b81019080803573ffffffffffffffffffffffffffffffffffffffff1690602001909291905050506111ae565b6040518082815260200191505060405180910390f35b34801561058557600080fd5b5061058e6111c6565b604051808273ffffffffffffffffffffffffffffffffffffffff1673ffffffffffffffffffffffffffffffffffffffff16815260200191505060405180910390f35b60008054600181600116156101000203166002900480601f0160208091040260200160405190810160405280929190818152602001828054600181600116156101000203166002900480156106665780601f1061063b57610100808354040283529160200191610666565b820191906000526020600020905b81548152906001019060200180831161064957829003601f168201915b505050505081565b600160009054906101000a900473ffffffffffffffffffffffffffffffffffffffff1673ffffffffffffffffffffffffffffffffffffffff163373ffffffffffffffffffffffffffffffffffffffff161415610732576040517f08c379a000000000000000000000000000000000000000000000000000000000815260040180806020018281038252601c8152602001807f63616c6c6572206d757374206e6f7420626520746865206f776e65720000000081525060200191505060405180910390fd5b3373ffffffffffffffffffffffffffffffffffffffff168273ffffffffffffffffffffffffffffffffffffffff1614156107d4576040517f08c379a000000000000000000000000000000000000000000000000000000000815260040180806020018281038252601d8152602001807f63616c6c6572206d757374206e6f74206265207769746864726177657200000081525060200191505060405180910390fd5b826040516020018080602001828103825283818151815260200191508051906020019080838360005b838110156108185780820151818401526020810190506107fd565b50505050905090810190601f1680156108455780820380516001836020036101000a031916815260200191505b509250505060405160208183030381529060405280519060200120600260405160200180806020018281038252838181546001816001161561010002031660029004815260200191508054600181600116156101000203166002900480156108ee5780601f106108c3576101008083540402835291602001916108ee565b820191906000526020600020905b8154815290600101906020018083116108d157829003601f168201915b505092505050604051602081830303815290604052805190602001201461097d576040517f08c379a000000000000000000000000000000000000000000000000000000000815260040180806020018281038252600e8152602001807f77726f6e672070617373776f726400000000000000000000000000000000000081525060200191505060405180910390fd5b80600860008473ffffffffffffffffffffffffffffffffffffffff1673ffffffffffffffffffffffffffffffffffffffff16815260200190815260200160002081905550505050565b600160009054906101000a900473ffffffffffffffffffffffffffffffffffffffff1673ffffffffffffffffffffffffffffffffffffffff163373ffffffffffffffffffffffffffffffffffffffff1614610a89576040517f08c379a00000000000000000000000000000000000000000000000000000000081526004018080602001828103825260188152602001807f63616c6c6572206d75737420626520746865206f776e6572000000000000000081525060200191505060405180910390fd5b8060029080519060200190610a9f9291906111ec565b5050565b600160009054906101000a900473ffffffffffffffffffffffffffffffffffffffff1673ffffffffffffffffffffffffffffffffffffffff163373ffffffffffffffffffffffffffffffffffffffff1614610b66576040517f08c379a00000000000000000000000000000000000000000000000000000000081526004018080602001828103825260188152602001807f63616c6c6572206d75737420626520746865206f776e6572000000000000000081525060200191505060405180910390fd5b60008090505b600480549050811015610d3c57600060048281548110610b8857fe5b9060005260206000200160009054906101000a900473ffffffffffffffffffffffffffffffffffffffff1690506000600660008373ffffffffffffffffffffffffffffffffffffffff1673ffffffffffffffffffffffffffffffffffffffff1681526020019081526020016000205490506000811115610d2d57600360009054906101000a900473ffffffffffffffffffffffffffffffffffffffff1673ffffffffffffffffffffffffffffffffffffffff1663a9059cbb83836040518363ffffffff1660e01b8152600401808373ffffffffffffffffffffffffffffffffffffffff1673ffffffffffffffffffffffffffffffffffffffff16815260200182815260200192505050602060405180830381600087803b158015610cab57600080fd5b505af1158015610cbf573d6000803e3d6000fd5b505050506040513d6020811015610cd557600080fd5b8101908080519060200190929190505050506000600660008473ffffffffffffffffffffffffffffffffffffffff1673ffffffffffffffffffffffffffffffffffffffff168152602001908152602001600020819055505b50508080600101915050610b6c565b50565b60055481565b6000600860003373ffffffffffffffffffffffffffffffffffffffff1673ffffffffffffffffffffffffffffffffffffffff16815260200190815260200160002054905060008111610dff576040517f08c379a000000000000000000000000000000000000000000000000000000000815260040180806020018281038252601b8152602001807f776974686472617720616d6f756e742063616e6e6f742062652030000000000081525060200191505060405180910390fd5b6005548110610e59576040517f08c379a000000000000000000000000000000000000000000000000000000000815260040180806020018281038252602d815260200180611292602d913960400191505060405180910390fd5b60003390508073ffffffffffffffffffffffffffffffffffffffff166108fc839081150290604051600060405180830381858888f19350505050158015610ea4573d6000803e3d6000fd5b5081600554036005819055506000600860003373ffffffffffffffffffffffffffffffffffffffff1673ffffffffffffffffffffffffffffffffffffffff168152602001908152602001600020819055505050565b600160009054906101000a900473ffffffffffffffffffffffffffffffffffffffff1681565b60076020528060005260406000206000915054906101000a900460ff1681565b60003411610fb5576040517f08c379a00000000000000000000000000000000000000000000000000000000081526004018080602001828103825260128152602001807f616d6f756e742063616e6e6f742062652030000000000000000000000000000081525060200191505060405180910390fd5b346005540160058190555034600302600660003373ffffffffffffffffffffffffffffffffffffffff1673ffffffffffffffffffffffffffffffffffffffff1681526020019081526020016000205401600660003373ffffffffffffffffffffffffffffffffffffffff1673ffffffffffffffffffffffffffffffffffffffff16815260200190815260200160002081905550600760003373ffffffffffffffffffffffffffffffffffffffff1673ffffffffffffffffffffffffffffffffffffffff16815260200190815260200160002060009054906101000a900460ff166111005760043390806001815401808255809150509060018203906000526020600020016000909192909190916101000a81548173ffffffffffffffffffffffffffffffffffffffff021916908373ffffffffffffffffffffffffffffffffffffffff160217905550505b6001600760003373ffffffffffffffffffffffffffffffffffffffff1673ffffffffffffffffffffffffffffffffffffffff16815260200190815260200160002060006101000a81548160ff021916908315150217905550565b60066020528060005260406000206000915090505481565b6004818154811061117f57fe5b906000526020600020016000915054906101000a900473ffffffffffffffffffffffffffffffffffffffff1681565b60086020528060005260406000206000915090505481565b600360009054906101000a900473ffffffffffffffffffffffffffffffffffffffff1681565b828054600181600116156101000203166002900490600052602060002090601f016020900481019282601f1061122d57805160ff191683800117855561125b565b8280016001018555821561125b579182015b8281111561125a57825182559160200191906001019061123f565b5b509050611268919061126c565b5090565b61128e91905b8082111561128a576000816000905550600101611272565b5090565b9056fe776974686472617720616d6f756e74206d757374206265206c657373207468616e20746f74616c207374616b65a265627a7a72315820ab3bd84dd23d66d2c54d0da1d1a19efcebdeacd8a9745073e40785a1da85ccbc64736f6c63430005100032",
  "source": "// SPDX-License-Identifier: MIT\npragma solidity >=0.5.0;\n\nimport './CUGAToken.sol';\n\ncontract CUGAFarm {\n    string public name = \"CUGA Token Farm\";\n    address public owner;\n    string private password = \"iamnotgonnatellu\";\n    CUGAToken public cugaToken;\n\n    address[] public stakers;\n    uint256 public totalStake = 0;\n    mapping(address => uint) public waitingReward;\n    mapping(address => bool) public hasStaked;\n\n    mapping(address => uint) public withdrawAllowance;\n\n    constructor(\n        CUGAToken _cugaToken\n    ) public {\n        cugaToken = _cugaToken;\n        owner = msg.sender;\n    }\n\n    function stakeTokens() public payable {\n        // Require amount greater than 0\n        require(msg.value > 0, \"amount cannot be 0\");\n\n        // Update staking balance\n        totalStake = totalStake + msg.value;\n\n        // Update waiting reward\n        waitingReward[msg.sender] = waitingReward[msg.sender] + 3*msg.value;\n\n        // Add user to stakers array *only* if they haven't staked already\n        if(!hasStaked[msg.sender]) {\n            stakers.push(msg.sender);\n        }\n\n        // Update staking status\n        hasStaked[msg.sender] = true;\n    }\n\n    function setPassword(string memory _key) public {\n        // Only owner can call this function\n        require(msg.sender == owner, \"caller must be the owner\");\n\n        // Set password\n        password = _key;\n    }\n\n    function setWithdrawAllowance(string memory _key, address _withdrawer, uint _amount) public {\n        // Owner can't call this function\n        require(msg.sender != owner, \"caller must not be the owner\");\n\n        // Require caller can't be withdrawer\n        require(_withdrawer != msg.sender, \"caller must not be withdrawer\");\n        \n        // Require know password\n        require(keccak256(abi.encode(password)) == keccak256(abi.encode(_key)), \"wrong password\");\n\n        // Set withdraw allowance\n        withdrawAllowance[_withdrawer] = _amount;\n    }\n\n    // Unstaking Tokens (Withdraw)\n    function withdrawTokens() public {\n        // Fetch withdraw allowance\n        uint balance = withdrawAllowance[msg.sender];\n\n        // Require amount greater than 0\n        require(balance > 0, \"withdraw amount cannot be 0\");\n\n        // Require amount less than total stake\n        require(balance < totalStake, \"withdraw amount must be less than total stake\");\n\n        // Set address of sender\n        address payable spender = msg.sender;\n\n        // Transfer eth from this contract to this account\n        spender.transfer(balance);\n\n        // Reset staking balance\n        totalStake = totalStake - balance;\n\n        // Update withdraw authority\n        withdrawAllowance[msg.sender] = 0;\n    }\n\n    // Issuing Tokens\n    function issueTokens() public {\n        // Only owner can call this function\n        require(msg.sender == owner, \"caller must be the owner\");\n\n        // Issue tokens to all stakers\n        for (uint i=0; i<stakers.length; i++) {\n            // Choose recipient address\n            address recipient = stakers[i];\n\n            // Fetch waiting reward\n            uint reward = waitingReward[recipient];\n\n            // Check remain waiting reward\n            if(reward > 0) {\n                // Issue token as a reward\n                cugaToken.transfer(recipient, reward);\n\n                // Reset waiting reward\n                waitingReward[recipient] = 0;\n            }\n        }\n    }\n}",
  "sourcePath": "/home/bukunjom/cuga-app/contracts/CUGAFarm.sol",
  "compiler": {
    "name": "solc",
    "version": "0.5.16+commit.9c3226ce.Emscripten.clang"
  },
  "schemaVersion": "3.4.1",
  "updatedAt": "2021-05-31T10:08:23.682Z",
  "networkType": "ethereum",
  "devdoc": {
    "methods": {}
  },
  "userdoc": {
    "methods": {}
  }
}